:104000000C9434200C9449200C9449200C944920A1
:104010000C9449200C9449200C9449200C9449207C
:104020000C9449200C9449200C9449200C9449206C
:104030000C9449200C9449200C9449200C9449205C
:104040000C9449200C9449200C9449200C9449204C
:104050000C9449200C9449200C9449200C9449203C
:104060000C9449200C94492011241FBECFEFD8E0B6
:10407000DEBFCDBF15E0A0E4B5E0ECE9F1E402C09D
:1040800005900D92A436B107D9F70E946D200C94CB
:10409000CC200C9400200F93E0910601F0910701D1
:1040A00021E046E455E061E082E00995E0910201FB
:1040B000F091030101E02AE04FE76AE080E0099512
:1040C000E0910401F091050124E044E06091420593
:1040D0008091440509950F91089500D00F92CDB7B6
:1040E000DEB784E595E09F938F93E0911601F09100
:1040F000170109957894E0910A01F0910B018BE486
:1041000090E209950F900F90509141052091440540
:1041100030914505250F311D57FD3A9520934405F3
:1041200030934505409140058091420590914305AB
:10413000840F911D47FD9A95809342059093430506
:10414000215031092A37310518F051955093410516
:104150000C978F9718F0419540934005E0910E0120
:10416000F0910F01CE010196099581110BC0E091EC
:104170000801F09109010995E0911201F0911301F4
:104180000995C2CF8981813049F78A8185FFE6CFC1
:0C419000E0E0F0E00995E2CFF894FFCFEA
:10419C00010220004000424F554E43494E472042F9
:1041AC00414C4C0042616C6C2044656D6F20537423
:0441BC0061727400B8
:0400000300004000B9
:00000001FF
