:043000000C945218C2
:1030100015E0A0E0B5E0E0EBF1E302C005900D9211
:10302000AE31B107D9F725E0AEE1B5E001C01D92A0
:10303000A432B207E1F70F93E091C02FF091C12FB6
:103040000680F781E02D21E040E055E062E082E07B
:103050000995E091C02FF091C12F0480F581E02DFA
:1030600001E024E044E0609120058091220509956B
:10307000E091C02FF091C12F0280F381E02D2BE071
:103080004FE76BE080E00995E091C02FF091C12FF0
:103090000280F381E02D2FE34FE76FE380E0099595
:1030A0000F91089500D00F92CDB7DEB780E48093E2
:1030B00022051092230580E28093200510922105BD
:1030C00082E080931F0581E080931E05E091C02F70
:1030D000F091C12F8EE095E09F938F930688F7893A
:1030E000E02D0995E091C02FF091C12F0284F38566
:1030F000E02D8BE198E109950F900F9050911F05FD
:103100002091220530912305250F311D57FD3A9559
:10311000209322053093230540911E0580912005C0
:1031200090912105840F911D47FD9A95809320056C
:1031300090932105215031092B37310518F0519515
:1031400050931F050D978E9718F0419540931E05DB
:1031500011E00AC08981813039F48A81807391E05D
:10316000803309F490E01923E091C02FF091C12F32
:103170000684F785E02DCE01019609958111EACFED
:10318000E091C02FF091C12F0084F185E02D0995C9
:10319000E091C02FF091C12F0288F389E02D0995AD
:1031A0001111ACCF80E090E00F900F900F90089538
:1031B000424F554E43494E472042414C4C004150EE
:0E31C000503A2042616C6C20537461727400AE
:0400000300003010B9
:00000001FF
