:104000000C9434200C9451200C9451200C94512089
:104010000C9451200C9451200C9451200C9451205C
:104020000C9451200C9451200C9451200C9451204C
:104030000C9451200C9451200C9451200C9451203C
:104040000C9451200C9451200C9451200C9451202C
:104050000C9451200C9451200C9451200C9451201C
:104060000C9451200C94512011241FBECFEFD8E0A6
:10407000DEBFCDBF15E0A0E4B5E0E4EEF1E402C0A0
:1040800005900D92AE36B107D9F725E0AEE6B5E062
:1040900001C01D92A037B207E1F70E9477200C946F
:1040A000F0200C9400200F93E0910601F09107019D
:1040B00021E044E455E061E082E00995E0910201ED
:1040C000F091030101E02AE04FE76AE080E0099502
:1040D00060914005625080914205E0910401F091A9
:1040E000050125E045E0825009950F91089500D023
:1040F0000F92CDB7DEB7789480E595E09F938F93CC
:10410000E0911601F09117010995E0910A01F091F3
:104110000B0183E590E209950F900F900DE515E0F6
:10412000E0910E01F0910F01CE01019609958111E8
:1041300014C080916E0590916F05019680936E0575
:1041400090936F05E0910801F09109010995E091C4
:104150001201F09113010995E3CF8981813001F7B4
:104160008A8180FF0AC0209140053091410521508D
:104170003109209340053093410581FF0AC0209109
:104180004005309141052F5F3F4F2093400530930C
:10419000410582FF0AC0209142053091430521501C
:1041A0003109209342053093430583FF0AC02091D3
:1041B0004205309143052F5F3F4F209342053093D6
:1041C000430585FFADCF1F930F93E0911601F0914A
:1041D00017010995E0E0F0E009950F900F90A0CF4E
:0441E000F894FFCF81
:1041E40020004000415652424F592044454D4F0053
:1041F40044656D6F207374617274656400457869F9
:0E42040074696E6720746F204F532E2E2E00AB
:0400000300004000B9
:00000001FF
