:104000000C9434200C9451200C9451200C94512089
:104010000C9451200C9451200C9451200C9451205C
:104020000C9451200C9451200C9451200C9451204C
:104030000C9451200C9451200C9451200C9451203C
:104040000C9451200C9451200C9451200C9451202C
:104050000C9451200C9451200C9451200C9451201C
:104060000C9451200C94512011241FBECFEFD8E0A6
:10407000DEBFCDBF15E0A0E4B5E0EAECF1E402C09C
:1040800005900D92AE35B107D9F725E0AEE5B5E064
:1040900001C01D92A036B207E1F70E9477200C9470
:1040A000E3200C9400200F93E0910601F0910701AA
:1040B00021E044E455E061E082E00995E0910201ED
:1040C000F091030101E02AE04FE76AE080E0099502
:1040D00060914005625080914205E0910401F091A9
:1040E000050125E045E0825009950F91089500D023
:1040F0000F92CDB7DEB780E595E09F938F93E09167
:104100001601F09117010995E0910A01F0910B0158
:1041100083E590E209950F900F90E0910E01F091E8
:104120000F01CE0101960995811113C080915E05A2
:1041300090915F05019680935E0590935F05E091F5
:104140000801F09109010995E0911201F091130124
:1041500038C08981813009F78A8180FF0AC02091A7
:10416000400530914105215031092093400530939D
:10417000410581FF0AC020914005309141052F5F24
:104180003F4F209340053093410582FF0AC02091A4
:104190004205309143052150310920934205309367
:1041A000430583FF0AC020914205309143052F5FEC
:1041B0003F4F209342053093430585FFAECFE0E0AB
:0A41C000F0E00995AACFF894FFCFB4
:1041CA0020004000415652424F592044454D4F006D
:0E41DA0044656D6F207374617274656400003B
:0400000300004000B9
:00000001FF
