:103000000C943A18089511E0A0E0B1E0ECE4F1E38B
:1030100002C005900D92AE31B107D9F721E0AEE1C3
:10302000B1E001C01D92A032B207E1F70F93E09129
:10303000C62FF091C72F21E044E051E061E082E02B
:103040000995E091C22FF091C32F01E02AE04FE7EC
:103050006AE080E009956091000162508091020170
:10306000E091C42FF091C52F25E045E082500995ED
:103070000F91089500D00F92CDB7DEB780E191E0B7
:103080009F938F93E091D62FF091D72F0995E091E0
:10309000CA2FF091CB2F86E198E109950F900F9000
:1030A000E091CE2FF091CF2FCE010196099581119D
:1030B00013C080911E0190911F01019680931E0103
:1030C00090931F01E091C82FF091C92F0995E091CD
:1030D000D22FF091D32F38C08981813009F78A81AE
:1030E00080FF0AC020910001309101012150310977
:1030F000209300013093010181FF0AC0209100015B
:10310000309101012F5F3F4F209300013093010167
:1031100082FF0AC020910201309103012150310940
:10312000209302013093030183FF0AC02091020122
:10313000309103012F5F3F4F209302013093030131
:0C31400085FFAECFE0E0F0E00995AACFDB
:10314C0020004000415652424F592044454D4F00FB
:0E315C0044656D6F20737461727465640000C9
:0400000300003000C9
:00000001FF
