:043000000C942D18E7
:1030100015E0A0E0B5E0EEEEF0E302C005900D9201
:10302000A033B107D9F7E091C02FF091C12F0680EE
:10303000F781E02D21E040E055E062E082E0099573
:10304000E091C02FF091C12F0680F781E02D21E0A3
:103050004EE055E062E382E0099400D00F92CDB7D4
:10306000DEB7E091C02FF091C12F8EE195E09F93E4
:103070008F930688F789E02D0995E091C02FF09194
:10308000C12F0284F385E02D83E198E109950F902B
:103090000F9011E008C09981913029F48A8121E0D4
:1030A00085FD92271923E091C02FF091C12F06844E
:1030B000F785E02DCE01019609958111ECCFE091C5
:1030C000C02FF091C12F0084F185E02D0995E0918A
:1030D000C02FF091C12F0288F389E02D09951111BD
:0E30E000D8CF80E090E00F900F900F900895F1
:1030EE0048656C6C6F2C20576F726C6421005052C7
:1030FE00455353204220544F2045584954004150C7
:10310E00503A2048656C6C6F2053746172740000E5
:0400000300003010B9
:00000001FF
