:104000000C9434200C9451200C9451200C94512089
:104010000C9451200C9451200C9451200C9451205C
:104020000C9451200C9451200C9451200C9451204C
:104030000C9451200C9451200C9451200C9451203C
:104040000C9451200C9451200C9451200C9451202C
:104050000C9451200C9451200C9451200C9451201C
:104060000C9451200C94512011241FBECFEFD8E0A6
:10407000DEBFCDBF15E0A0E4B5E0EAE5F2E402C0A2
:1040800005900D92AC38B107D9F725E0ACE8B5E062
:1040900001C01D92A139B207E1F70E9428210C94BA
:1040A0002B210C940020EF92FF920F93CF93E0917D
:1040B0000601F091070121E040E455E061E082E073
:1040C0000995E0910201F091030101E02AE04FE738
:1040D0006AE080E00995E0910601F091070121E096
:1040E0004DE455E06FE082E00995C8E2E12CF12C47
:1040F0008091900590E00E2C02C0959587950A94CA
:10410000E2F780FF28C0E0910401F091050101E091
:1041100028E048E06FE08C2F09958FEFE81AF80A45
:10412000C65FC43629F7E0910601F091070121E04E
:1041300043E555E06EE182E00995E0910601F091DA
:10414000070121E040E655E068E282E0CF910F915F
:10415000FF90EF900994E0910201F091030101E0DA
:1041600027E148E04C0FD6CFCF93DF9300D00F92DA
:10417000CDB7DEB78EE695E09F938F93E091160161
:10418000F09117010995E0910A01F0910B0183E587
:1041900090E209950F900F900EE715E0E0910E0167
:1041A000F0910F01CE010196099581110AC0E091AD
:1041B0000801F09109010995E0911201F0911301B4
:1041C0003EC089818130E9F58A8180939005E09134
:1041D0001001F0911101099520918C0530918D0508
:1041E00040918E0550918F05621B730B840B950BCC
:1041F0006536710581059105E0F0809190051F926B
:104200008F931F930F93E0911601F0911701099579
:10421000E0911001F0911101099560938C05709364
:104220008D0580938E0590938F050F900F900F90C2
:104230000F9080919005E0E0F0E085FFAFCF099509
:10424000ADCF823009F0AACF8A8180939005A6CFA6
:0A42500078940E94B420F894FFCF88
:10425A00494E505554205445535445520042544EE9
:10426A00533A00413A20464C4153482041505000AD
:10427A00423A204558495420544F204F5300496E22
:10428A00707574205465737420496E6974004254C1
:0C429A004E20444E3A20253032580000DF
:0400000300004000B9
:00000001FF
