:104000000C9434200C9451200C9451200C94512089
:104010000C9451200C9451200C9451200C9451205C
:104020000C9451200C9451200C9451200C9451204C
:104030000C9451200C9451200C9451200C9451203C
:104040000C9451200C9451200C9451200C9451202C
:104050000C9451200C9451200C9451200C9451201C
:104060000C9451200C94512011241FBECFEFD8E0A6
:10407000DEBFCDBF15E0A0E4B5E0E8EDF3E402C09B
:1040800005900D92AE37B107D9F725E0AEE7B5E060
:1040900001C01D92AF37B207E1F70E94E7210C94EF
:1040A000EA210C9400200F93CF93DF93CDB7DEB7B6
:1040B00028970FB6F894DEBF0FBECDBF68874E833A
:1040C0005F83962F915099839FEF980F9A8391E089
:1040D000980F9D8390917E052923E9F0E0910401DA
:1040E000F091050101E02AE04AE069818A810995A1
:1040F000E0910601F091070120E04E815F81688523
:104100008D8128960FB6F894DEBF0FBECDBFDF912C
:10411000CF910F910994885F8B83E0910201F09118
:10412000030101E02981482F622F8A810995888542
:10413000885F8C83E0910201F0910301282F4B816D
:10414000682F8A810995E0910201F09103012C8189
:104150004A816981842F0995E0910201F091030160
:104160002C814B816981842F0995E0910601F091A2
:10417000070121E0C2CF0F93E0910601F091070102
:1041800021E042E455E061E082E00995E09102011E
:10419000F091030101E02AE04FE76AE080E0099531
:1041A000E0910201F091030121E144E561E18CE23B
:1041B0000995E0910201F091030129E344E569E3E7
:1041C0008CE20995E0910201F091030129E34CE2B0
:1041D00061E18CE20995E0910201F091030129E38C
:1041E00044E561E184E50995809140058058990B8B
:1041F00024E1289FB001299F700D112477FF02C090
:1042000061587F4F660F672F661F770B6D5D20919A
:1042100041052058330B44E1429FC001439F900D5C
:10422000112497FF02C081589F4F880F892F881F44
:10423000990BE0910401F091050125E045E0825CD5
:10424000099521E042E555E064E18FE00E945320AA
:1042500022E044E555E068E28FE00E94532024E02C
:1042600040E555E06EE185E00E94532028E046E5F8
:1042700055E06EE189E10E94532020E148E555E0D8
:1042800069E184E60E94532020E24AE555E063E2BA
:1042900083E70E945320E0910601F091070121E09D
:1042A0004CE555E067E382E00F910994CF93DF93EB
:1042B00000D00F92CDB7DEB788E695E09F938F933D
:1042C000E0911601F09117010995E0910A01F09132
:1042D0000B018BEB90E209950F900F90E0910E018E
:1042E000F0910F01CE010196099581110AC0E0916C
:1042F0000801F09109010995E0911201F091130173
:1043000027C08981833039F48A81809341058B816C
:1043100080934005E3CF813009F049C08A818093C2
:104320007E0580FF17C0E0910C01F0910D0188EB34
:1043300091E0099580917E058073803379F6E09154
:104340000C01F0910D0180E090E00995E0E0F0E0D3
:104350000995C4CF81FF07C0E0910C01F0910D01D8
:1043600088E891E0E6CF82FF07C0E0910C01F09170
:104370000D018DE591E0DDCF83FF07C0E0910C01D9
:10438000F0910D018AE491E0D4CF84FF07C0E09161
:104390000C01F0910D018BE092E0CBCF85FFCACFED
:1043A000E0910C01F0910D018BE492E0C2CF8230DC
:1043B00009F094CF8A8180937E0581118FCFE0919F
:1043C0000C01F0910D0180E090E0099587CF789481
:0843D0000E945621F894FFCF72
:1043D80080804A4F59535449434B205649535541BD
:1043E8004C0055004400520041004200412B42203D
:1043F800544F2045584954004A6F792056697375BF
:0E440800616C697A65722041637469766500A3
:0400000300004000B9
:00000001FF
